{
  "_format": "hh3-artifact-1",
  "contractName": "ShineTicket",
  "sourceName": "contracts/ShineTicket.sol",
  "abi": [
    {
      "inputs": [
        {
          "internalType": "address",
          "name": "initialOwner",
          "type": "address"
        }
      ],
      "stateMutability": "nonpayable",
      "type": "constructor"
    },
    {
      "inputs": [],
      "name": "ApprovalCallerNotOwnerNorApproved",
      "type": "error"
    },
    {
      "inputs": [],
      "name": "ApprovalQueryForNonexistentToken",
      "type": "error"
    },
    {
      "inputs": [],
      "name": "BalanceQueryForZeroAddress",
      "type": "error"
    },
    {
      "inputs": [],
      "name": "MintERC2309QuantityExceedsLimit",
      "type": "error"
    },
    {
      "inputs": [],
      "name": "MintToZeroAddress",
      "type": "error"
    },
    {
      "inputs": [],
      "name": "MintZeroQuantity",
      "type": "error"
    },
    {
      "inputs": [],
      "name": "NotCompatibleWithSpotMints",
      "type": "error"
    },
    {
      "inputs": [
        {
          "internalType": "address",
          "name": "owner",
          "type": "address"
        }
      ],
      "name": "OwnableInvalidOwner",
      "type": "error"
    },
    {
      "inputs": [
        {
          "internalType": "address",
          "name": "account",
          "type": "address"
        }
      ],
      "name": "OwnableUnauthorizedAccount",
      "type": "error"
    },
    {
      "inputs": [],
      "name": "OwnerQueryForNonexistentToken",
      "type": "error"
    },
    {
      "inputs": [],
      "name": "OwnershipNotInitializedForExtraData",
      "type": "error"
    },
    {
      "inputs": [],
      "name": "SequentialMintExceedsLimit",
      "type": "error"
    },
    {
      "inputs": [],
      "name": "SequentialUpToTooSmall",
      "type": "error"
    },
    {
      "inputs": [],
      "name": "SpotMintTokenIdTooSmall",
      "type": "error"
    },
    {
      "inputs": [],
      "name": "TokenAlreadyExists",
      "type": "error"
    },
    {
      "inputs": [],
      "name": "TransferCallerNotOwnerNorApproved",
      "type": "error"
    },
    {
      "inputs": [],
      "name": "TransferFromIncorrectOwner",
      "type": "error"
    },
    {
      "inputs": [],
      "name": "TransferToNonERC721ReceiverImplementer",
      "type": "error"
    },
    {
      "inputs": [],
      "name": "TransferToZeroAddress",
      "type": "error"
    },
    {
      "inputs": [],
      "name": "URIQueryForNonexistentToken",
      "type": "error"
    },
    {
      "anonymous": false,
      "inputs": [
        {
          "indexed": true,
          "internalType": "address",
          "name": "owner",
          "type": "address"
        },
        {
          "indexed": true,
          "internalType": "address",
          "name": "approved",
          "type": "address"
        },
        {
          "indexed": true,
          "internalType": "uint256",
          "name": "tokenId",
          "type": "uint256"
        }
      ],
      "name": "Approval",
      "type": "event"
    },
    {
      "anonymous": false,
      "inputs": [
        {
          "indexed": true,
          "internalType": "address",
          "name": "owner",
          "type": "address"
        },
        {
          "indexed": true,
          "internalType": "address",
          "name": "operator",
          "type": "address"
        },
        {
          "indexed": false,
          "internalType": "bool",
          "name": "approved",
          "type": "bool"
        }
      ],
      "name": "ApprovalForAll",
      "type": "event"
    },
    {
      "anonymous": false,
      "inputs": [
        {
          "indexed": true,
          "internalType": "uint256",
          "name": "fromTokenId",
          "type": "uint256"
        },
        {
          "indexed": false,
          "internalType": "uint256",
          "name": "toTokenId",
          "type": "uint256"
        },
        {
          "indexed": true,
          "internalType": "address",
          "name": "from",
          "type": "address"
        },
        {
          "indexed": true,
          "internalType": "address",
          "name": "to",
          "type": "address"
        }
      ],
      "name": "ConsecutiveTransfer",
      "type": "event"
    },
    {
      "anonymous": false,
      "inputs": [
        {
          "indexed": true,
          "internalType": "address",
          "name": "previousOwner",
          "type": "address"
        },
        {
          "indexed": true,
          "internalType": "address",
          "name": "newOwner",
          "type": "address"
        }
      ],
      "name": "OwnershipTransferred",
      "type": "event"
    },
    {
      "anonymous": false,
      "inputs": [
        {
          "indexed": false,
          "internalType": "uint256[]",
          "name": "tokenIds",
          "type": "uint256[]"
        },
        {
          "indexed": false,
          "internalType": "uint256",
          "name": "timestamp",
          "type": "uint256"
        }
      ],
      "name": "TicketsCheckedIn",
      "type": "event"
    },
    {
      "anonymous": false,
      "inputs": [
        {
          "indexed": true,
          "internalType": "address",
          "name": "from",
          "type": "address"
        },
        {
          "indexed": true,
          "internalType": "address",
          "name": "to",
          "type": "address"
        },
        {
          "indexed": true,
          "internalType": "uint256",
          "name": "tokenId",
          "type": "uint256"
        }
      ],
      "name": "Transfer",
      "type": "event"
    },
    {
      "inputs": [
        {
          "internalType": "address",
          "name": "to",
          "type": "address"
        },
        {
          "internalType": "uint256",
          "name": "tokenId",
          "type": "uint256"
        }
      ],
      "name": "approve",
      "outputs": [],
      "stateMutability": "payable",
      "type": "function"
    },
    {
      "inputs": [
        {
          "internalType": "address",
          "name": "owner",
          "type": "address"
        }
      ],
      "name": "balanceOf",
      "outputs": [
        {
          "internalType": "uint256",
          "name": "",
          "type": "uint256"
        }
      ],
      "stateMutability": "view",
      "type": "function"
    },
    {
      "inputs": [
        {
          "internalType": "uint256[]",
          "name": "tokenIds",
          "type": "uint256[]"
        }
      ],
      "name": "batchCheckIn",
      "outputs": [],
      "stateMutability": "nonpayable",
      "type": "function"
    },
    {
      "inputs": [
        {
          "internalType": "uint256",
          "name": "tokenId",
          "type": "uint256"
        }
      ],
      "name": "checkIn",
      "outputs": [],
      "stateMutability": "nonpayable",
      "type": "function"
    },
    {
      "inputs": [
        {
          "internalType": "uint256",
          "name": "tokenId",
          "type": "uint256"
        }
      ],
      "name": "getApproved",
      "outputs": [
        {
          "internalType": "address",
          "name": "",
          "type": "address"
        }
      ],
      "stateMutability": "view",
      "type": "function"
    },
    {
      "inputs": [
        {
          "internalType": "uint256[]",
          "name": "tokenIds",
          "type": "uint256[]"
        }
      ],
      "name": "getBatchTicketStatus",
      "outputs": [
        {
          "internalType": "bool[]",
          "name": "",
          "type": "bool[]"
        }
      ],
      "stateMutability": "view",
      "type": "function"
    },
    {
      "inputs": [
        {
          "internalType": "address",
          "name": "owner",
          "type": "address"
        },
        {
          "internalType": "address",
          "name": "operator",
          "type": "address"
        }
      ],
      "name": "isApprovedForAll",
      "outputs": [
        {
          "internalType": "bool",
          "name": "",
          "type": "bool"
        }
      ],
      "stateMutability": "view",
      "type": "function"
    },
    {
      "inputs": [
        {
          "internalType": "address[]",
          "name": "recipients",
          "type": "address[]"
        },
        {
          "internalType": "uint256[]",
          "name": "quantities",
          "type": "uint256[]"
        }
      ],
      "name": "mintBatchUsers",
      "outputs": [],
      "stateMutability": "nonpayable",
      "type": "function"
    },
    {
      "inputs": [
        {
          "internalType": "address",
          "name": "to",
          "type": "address"
        },
        {
          "internalType": "uint256",
          "name": "quantity",
          "type": "uint256"
        }
      ],
      "name": "mintTicket",
      "outputs": [],
      "stateMutability": "nonpayable",
      "type": "function"
    },
    {
      "inputs": [],
      "name": "name",
      "outputs": [
        {
          "internalType": "string",
          "name": "",
          "type": "string"
        }
      ],
      "stateMutability": "view",
      "type": "function"
    },
    {
      "inputs": [],
      "name": "owner",
      "outputs": [
        {
          "internalType": "address",
          "name": "",
          "type": "address"
        }
      ],
      "stateMutability": "view",
      "type": "function"
    },
    {
      "inputs": [
        {
          "internalType": "uint256",
          "name": "tokenId",
          "type": "uint256"
        }
      ],
      "name": "ownerOf",
      "outputs": [
        {
          "internalType": "address",
          "name": "",
          "type": "address"
        }
      ],
      "stateMutability": "view",
      "type": "function"
    },
    {
      "inputs": [],
      "name": "renounceOwnership",
      "outputs": [],
      "stateMutability": "nonpayable",
      "type": "function"
    },
    {
      "inputs": [
        {
          "internalType": "uint256",
          "name": "tokenId",
          "type": "uint256"
        }
      ],
      "name": "revokeTicket",
      "outputs": [],
      "stateMutability": "nonpayable",
      "type": "function"
    },
    {
      "inputs": [
        {
          "internalType": "address",
          "name": "from",
          "type": "address"
        },
        {
          "internalType": "address",
          "name": "to",
          "type": "address"
        },
        {
          "internalType": "uint256",
          "name": "tokenId",
          "type": "uint256"
        }
      ],
      "name": "safeTransferFrom",
      "outputs": [],
      "stateMutability": "payable",
      "type": "function"
    },
    {
      "inputs": [
        {
          "internalType": "address",
          "name": "from",
          "type": "address"
        },
        {
          "internalType": "address",
          "name": "to",
          "type": "address"
        },
        {
          "internalType": "uint256",
          "name": "tokenId",
          "type": "uint256"
        },
        {
          "internalType": "bytes",
          "name": "_data",
          "type": "bytes"
        }
      ],
      "name": "safeTransferFrom",
      "outputs": [],
      "stateMutability": "payable",
      "type": "function"
    },
    {
      "inputs": [
        {
          "internalType": "address",
          "name": "operator",
          "type": "address"
        },
        {
          "internalType": "bool",
          "name": "approved",
          "type": "bool"
        }
      ],
      "name": "setApprovalForAll",
      "outputs": [],
      "stateMutability": "nonpayable",
      "type": "function"
    },
    {
      "inputs": [
        {
          "internalType": "string",
          "name": "baseURI",
          "type": "string"
        }
      ],
      "name": "setBaseURI",
      "outputs": [],
      "stateMutability": "nonpayable",
      "type": "function"
    },
    {
      "inputs": [
        {
          "internalType": "bytes4",
          "name": "interfaceId",
          "type": "bytes4"
        }
      ],
      "name": "supportsInterface",
      "outputs": [
        {
          "internalType": "bool",
          "name": "",
          "type": "bool"
        }
      ],
      "stateMutability": "view",
      "type": "function"
    },
    {
      "inputs": [],
      "name": "symbol",
      "outputs": [
        {
          "internalType": "string",
          "name": "",
          "type": "string"
        }
      ],
      "stateMutability": "view",
      "type": "function"
    },
    {
      "inputs": [
        {
          "internalType": "uint256",
          "name": "",
          "type": "uint256"
        }
      ],
      "name": "ticketUsed",
      "outputs": [
        {
          "internalType": "bool",
          "name": "",
          "type": "bool"
        }
      ],
      "stateMutability": "view",
      "type": "function"
    },
    {
      "inputs": [
        {
          "internalType": "uint256",
          "name": "tokenId",
          "type": "uint256"
        }
      ],
      "name": "tokenURI",
      "outputs": [
        {
          "internalType": "string",
          "name": "",
          "type": "string"
        }
      ],
      "stateMutability": "view",
      "type": "function"
    },
    {
      "inputs": [],
      "name": "totalSupply",
      "outputs": [
        {
          "internalType": "uint256",
          "name": "result",
          "type": "uint256"
        }
      ],
      "stateMutability": "view",
      "type": "function"
    },
    {
      "inputs": [
        {
          "internalType": "address",
          "name": "from",
          "type": "address"
        },
        {
          "internalType": "address",
          "name": "to",
          "type": "address"
        },
        {
          "internalType": "uint256",
          "name": "tokenId",
          "type": "uint256"
        }
      ],
      "name": "transferFrom",
      "outputs": [],
      "stateMutability": "payable",
      "type": "function"
    },
    {
      "inputs": [
        {
          "internalType": "address",
          "name": "newOwner",
          "type": "address"
        }
      ],
      "name": "transferOwnership",
      "outputs": [],
      "stateMutability": "nonpayable",
      "type": "function"
    }
  ],
  "bytecode": "0x608060405234801561000f575f5ffd5b506040516136ff3803806136ff833981810160405281019061003191906102ea565b806040518060400160405280600b81526020017f5368696e655469636b65740000000000000000000000000000000000000000008152506040518060400160405280600581526020017f5348494e4500000000000000000000000000000000000000000000000000000081525081600290816100ad9190610552565b5080600390816100bd9190610552565b506100cc61019260201b60201c565b5f819055506100df61019260201b60201c565b6100ed61019a60201b60201c565b101561010a5761010963fed8210f60e01b6101c160201b60201c565b5b50505f73ffffffffffffffffffffffffffffffffffffffff168173ffffffffffffffffffffffffffffffffffffffff160361017c575f6040517f1e4fbdf70000000000000000000000000000000000000000000000000000000081526004016101739190610630565b60405180910390fd5b61018b816101c960201b60201c565b5050610649565b5f6001905090565b5f7fffffffffffffffffffffffffffffffffffffffffffffffffffffffffffffffff905090565b805f5260045ffd5b5f60095f9054906101000a900473ffffffffffffffffffffffffffffffffffffffff1690508160095f6101000a81548173ffffffffffffffffffffffffffffffffffffffff021916908373ffffffffffffffffffffffffffffffffffffffff1602179055508173ffffffffffffffffffffffffffffffffffffffff168173ffffffffffffffffffffffffffffffffffffffff167f8be0079c531659141344cd1fd0a4f28419497f9722a3daafe3b4186f6b6457e060405160405180910390a35050565b5f5ffd5b5f73ffffffffffffffffffffffffffffffffffffffff82169050919050565b5f6102b982610290565b9050919050565b6102c9816102af565b81146102d3575f5ffd5b50565b5f815190506102e4816102c0565b92915050565b5f602082840312156102ff576102fe61028c565b5b5f61030c848285016102d6565b91505092915050565b5f81519050919050565b7f4e487b71000000000000000000000000000000000000000000000000000000005f52604160045260245ffd5b7f4e487b71000000000000000000000000000000000000000000000000000000005f52602260045260245ffd5b5f600282049050600182168061039057607f821691505b6020821081036103a3576103a261034c565b5b50919050565b5f819050815f5260205f209050919050565b5f6020601f8301049050919050565b5f82821b905092915050565b5f600883026104057fffffffffffffffffffffffffffffffffffffffffffffffffffffffffffffffff826103ca565b61040f86836103ca565b95508019841693508086168417925050509392505050565b5f819050919050565b5f819050919050565b5f61045361044e61044984610427565b610430565b610427565b9050919050565b5f819050919050565b61046c83610439565b6104806104788261045a565b8484546103d6565b825550505050565b5f5f905090565b610497610488565b6104a2818484610463565b505050565b5b818110156104c5576104ba5f8261048f565b6001810190506104a8565b5050565b601f82111561050a576104db816103a9565b6104e4846103bb565b810160208510156104f3578190505b6105076104ff856103bb565b8301826104a7565b50505b505050565b5f82821c905092915050565b5f61052a5f198460080261050f565b1980831691505092915050565b5f610542838361051b565b9150826002028217905092915050565b61055b82610315565b67ffffffffffffffff8111156105745761057361031f565b5b61057e8254610379565b6105898282856104c9565b5f60209050601f8311600181146105ba575f84156105a8578287015190505b6105b28582610537565b865550610619565b601f1984166105c8866103a9565b5f5b828110156105ef578489015182556001820191506020850194506020810190506105ca565b8683101561060c5784890151610608601f89168261051b565b8355505b6001600288020188555050505b505050505050565b61062a816102af565b82525050565b5f6020820190506106435f830184610621565b92915050565b6130a9806106565f395ff3fe608060405260043610610165575f3560e01c8063715018a6116100d0578063a5f7f46611610089578063c87b56dd11610063578063c87b56dd146104ef578063e95a644f1461052b578063e985e9c514610553578063f2fde38b1461058f57610165565b8063a5f7f46614610483578063afc573b1146104ab578063b88d4fde146104d357610165565b8063715018a6146103a15780638da5cb5b146103b7578063947e59b4146103e157806395d89b41146104095780639b9ac6c314610433578063a22cb4651461045b57610165565b806323b872dd1161012257806323b872dd1461028d57806342842e0e146102a957806355f804b3146102c55780636352211e146102ed578063642b5f9b1461032957806370a082311461036557610165565b806301ffc9a71461016957806306fdde03146101a5578063081812fc146101cf578063095ea7b31461020b57806318160ddd1461022757806319fcf7cb14610251575b5f5ffd5b348015610174575f5ffd5b5061018f600480360381019061018a919061207d565b6105b7565b60405161019c91906120c2565b60405180910390f35b3480156101b0575f5ffd5b506101b9610648565b6040516101c6919061214b565b60405180910390f35b3480156101da575f5ffd5b506101f560048036038101906101f0919061219e565b6106d8565b6040516102029190612208565b60405180910390f35b6102256004803603810190610220919061224b565b610731565b005b348015610232575f5ffd5b5061023b610741565b6040516102489190612298565b60405180910390f35b34801561025c575f5ffd5b5061027760048036038101906102729190612312565b61078c565b6040516102849190612414565b60405180910390f35b6102a760048036038101906102a29190612434565b6108b3565b005b6102c360048036038101906102be9190612434565b610b5e565b005b3480156102d0575f5ffd5b506102eb60048036038101906102e691906124d9565b610b7d565b005b3480156102f8575f5ffd5b50610313600480360381019061030e919061219e565b610b9b565b6040516103209190612208565b60405180910390f35b348015610334575f5ffd5b5061034f600480360381019061034a919061219e565b610bac565b60405161035c91906120c2565b60405180910390f35b348015610370575f5ffd5b5061038b60048036038101906103869190612524565b610bc9565b6040516103989190612298565b60405180910390f35b3480156103ac575f5ffd5b506103b5610c5d565b005b3480156103c2575f5ffd5b506103cb610c70565b6040516103d89190612208565b60405180910390f35b3480156103ec575f5ffd5b506104076004803603810190610402919061219e565b610c98565b005b348015610414575f5ffd5b5061041d610cac565b60405161042a919061214b565b60405180910390f35b34801561043e575f5ffd5b5061045960048036038101906104549190612312565b610d3c565b005b348015610466575f5ffd5b50610481600480360381019061047c9190612579565b610e1e565b005b34801561048e575f5ffd5b506104a960048036038101906104a4919061224b565b610f24565b005b3480156104b6575f5ffd5b506104d160048036038101906104cc919061260c565b610f3a565b005b6104ed60048036038101906104e891906127b2565b610ff8565b005b3480156104fa575f5ffd5b506105156004803603810190610510919061219e565b611049565b604051610522919061214b565b60405180910390f35b348015610536575f5ffd5b50610551600480360381019061054c919061219e565b6110c3565b005b34801561055e575f5ffd5b5061057960048036038101906105749190612832565b611244565b60405161058691906120c2565b60405180910390f35b34801561059a575f5ffd5b506105b560048036038101906105b09190612524565b6112d2565b005b5f6301ffc9a760e01b827bffffffffffffffffffffffffffffffffffffffffffffffffffffffff1916148061061157506380ac58cd60e01b827bffffffffffffffffffffffffffffffffffffffffffffffffffffffff1916145b806106415750635b5e139f60e01b827bffffffffffffffffffffffffffffffffffffffffffffffffffffffff1916145b9050919050565b6060600280546106579061289d565b80601f01602080910402602001604051908101604052809291908181526020018280546106839061289d565b80156106ce5780601f106106a5576101008083540402835291602001916106ce565b820191905f5260205f20905b8154815290600101906020018083116106b157829003601f168201915b5050505050905090565b5f6106e282611356565b6106f7576106f663cf4700e460e01b6113f9565b5b60065f8381526020019081526020015f205f015f9054906101000a900473ffffffffffffffffffffffffffffffffffffffff169050919050565b61073d82826001611401565b5050565b5f61074a61152b565b6001545f54030390507fffffffffffffffffffffffffffffffffffffffffffffffffffffffffffffffff61077c611533565b1461078957600854810190505b90565b60605f8383905067ffffffffffffffff8111156107ac576107ab61268e565b5b6040519080825280602002602001820160405280156107da5781602001602082028036833780820191505090505b5090505f5f90505b848490508110156108a85761080f858583818110610803576108026128cd565b5b90506020020135611356565b61083e575f828281518110610827576108266128cd565b5b60200260200101901515908115158152505061089b565b600a5f868684818110610854576108536128cd565b5b9050602002013581526020019081526020015f205f9054906101000a900460ff16828281518110610888576108876128cd565b5b6020026020010190151590811515815250505b80806001019150506107e2565b508091505092915050565b5f6108bd8261155a565b905073ffffffffffffffffffffffffffffffffffffffff8473ffffffffffffffffffffffffffffffffffffffff161693508373ffffffffffffffffffffffffffffffffffffffff168173ffffffffffffffffffffffffffffffffffffffff16146109325761093163a114810060e01b6113f9565b5b5f5f61093d84611669565b91509150610953818761094e61168c565b611693565b61097e576109688661096361168c565b611244565b61097d5761097c6359c896be60e01b6113f9565b5b5b61098b86868660016116d6565b8015610995575f82555b60055f8773ffffffffffffffffffffffffffffffffffffffff1673ffffffffffffffffffffffffffffffffffffffff1681526020019081526020015f205f8154600190039190508190555060055f8673ffffffffffffffffffffffffffffffffffffffff1673ffffffffffffffffffffffffffffffffffffffff1681526020019081526020015f205f815460010191905081905550610a5d85610a398888876117da565b7c020000000000000000000000000000000000000000000000000000000017611801565b60045f8681526020019081526020015f20819055505f7c0200000000000000000000000000000000000000000000000000000000841603610ad9575f6001850190505f60045f8381526020019081526020015f205403610ad7575f548114610ad6578360045f8381526020019081526020015f20819055505b5b505b5f73ffffffffffffffffffffffffffffffffffffffff8673ffffffffffffffffffffffffffffffffffffffff161690508481887fddf252ad1be2c89b69c2b068fc378daa952ba7f163c4a11628f55a4df523b3ef5f5fa45f8103610b4857610b4763ea553b3460e01b6113f9565b5b610b55878787600161182b565b50505050505050565b610b7883838360405180602001604052805f815250610ff8565b505050565b610b85611831565b8181600b9182610b96929190612aa4565b505050565b5f610ba58261155a565b9050919050565b600a602052805f5260405f205f915054906101000a900460ff1681565b5f5f73ffffffffffffffffffffffffffffffffffffffff168273ffffffffffffffffffffffffffffffffffffffff1603610c0e57610c0d638f4eb60460e01b6113f9565b5b67ffffffffffffffff60055f8473ffffffffffffffffffffffffffffffffffffffff1673ffffffffffffffffffffffffffffffffffffffff1681526020019081526020015f2054169050919050565b610c65611831565b610c6e5f6118b8565b565b5f60095f9054906101000a900473ffffffffffffffffffffffffffffffffffffffff16905090565b610ca0611831565b610ca98161197b565b50565b606060038054610cbb9061289d565b80601f0160208091040260200160405190810160405280929190818152602001828054610ce79061289d565b8015610d325780601f10610d0957610100808354040283529160200191610d32565b820191905f5260205f20905b815481529060010190602001808311610d1557829003601f168201915b5050505050905090565b610d44611831565b5f5f90505b82829050811015610dde575f838383818110610d6857610d676128cd565b5b905060200201359050610d7a81611356565b8015610da15750600a5f8281526020019081526020015f205f9054906101000a900460ff16155b15610dd0576001600a5f8381526020019081526020015f205f6101000a81548160ff0219169083151502179055505b508080600101915050610d49565b507f0e862c2630b0e020ea8c569930ac577d3c103fdb452386c869484d2b2cb73881828242604051610e1293929190612be9565b60405180910390a15050565b8060075f610e2a61168c565b73ffffffffffffffffffffffffffffffffffffffff1673ffffffffffffffffffffffffffffffffffffffff1681526020019081526020015f205f8473ffffffffffffffffffffffffffffffffffffffff1673ffffffffffffffffffffffffffffffffffffffff1681526020019081526020015f205f6101000a81548160ff0219169083151502179055508173ffffffffffffffffffffffffffffffffffffffff16610ed361168c565b73ffffffffffffffffffffffffffffffffffffffff167f17307eab39ab6107e8899845ad3d59bd9653f200f220920489ca2b5937696c3183604051610f1891906120c2565b60405180910390a35050565b610f2c611831565b610f368282611988565b5050565b610f42611831565b818190508484905014610f8a576040517f08c379a0000000000000000000000000000000000000000000000000000000008152600401610f8190612c63565b60405180910390fd5b5f5f90505b84849050811015610ff157610fe4858583818110610fb057610faf6128cd565b5b9050602002016020810190610fc59190612524565b848484818110610fd857610fd76128cd565b5b90506020020135611988565b8080600101915050610f8f565b5050505050565b6110038484846108b3565b5f8373ffffffffffffffffffffffffffffffffffffffff163b146110435761102d848484846119a5565b6110425761104163d1a57ed660e01b6113f9565b5b5b50505050565b606061105482611356565b6110695761106863a14c4b5060e01b6113f9565b5b5f611072611acf565b90505f8151036110905760405180602001604052805f8152506110bb565b8061109a84611b5f565b6040516020016110ab929190612cbb565b6040516020818303038152906040525b915050919050565b6110cb611831565b6110d481611356565b611113576040517f08c379a000000000000000000000000000000000000000000000000000000000815260040161110a90612d28565b60405180910390fd5b600a5f8281526020019081526020015f205f9054906101000a900460ff1615611171576040517f08c379a000000000000000000000000000000000000000000000000000000000815260040161116890612d90565b60405180910390fd5b6001600a5f8381526020019081526020015f205f6101000a81548160ff0219169083151502179055505f600167ffffffffffffffff8111156111b6576111b561268e565b5b6040519080825280602002602001820160405280156111e45781602001602082028036833780820191505090505b50905081815f815181106111fb576111fa6128cd565b5b6020026020010181815250507f0e862c2630b0e020ea8c569930ac577d3c103fdb452386c869484d2b2cb738818142604051611238929190612e55565b60405180910390a15050565b5f60075f8473ffffffffffffffffffffffffffffffffffffffff1673ffffffffffffffffffffffffffffffffffffffff1681526020019081526020015f205f8373ffffffffffffffffffffffffffffffffffffffff1673ffffffffffffffffffffffffffffffffffffffff1681526020019081526020015f205f9054906101000a900460ff16905092915050565b6112da611831565b5f73ffffffffffffffffffffffffffffffffffffffff168173ffffffffffffffffffffffffffffffffffffffff160361134a575f6040517f1e4fbdf70000000000000000000000000000000000000000000000000000000081526004016113419190612208565b60405180910390fd5b611353816118b8565b50565b5f8161136061152b565b116113f35761136d611533565b8211156113955761138e60045f8481526020019081526020015f2054611bae565b90506113f4565b5f548210156113f2575f5b5f60045f8581526020019081526020015f2054915081036113cc57826113c590612eb0565b92506113a0565b5f7c01000000000000000000000000000000000000000000000000000000008216149150505b5b5b919050565b805f5260045ffd5b5f61140b83610b9b565b905081801561144d57508073ffffffffffffffffffffffffffffffffffffffff1661143461168c565b73ffffffffffffffffffffffffffffffffffffffff1614155b15611479576114638161145e61168c565b611244565b6114785761147763cfb3b94260e01b6113f9565b5b5b8360065f8581526020019081526020015f205f015f6101000a81548173ffffffffffffffffffffffffffffffffffffffff021916908373ffffffffffffffffffffffffffffffffffffffff160217905550828473ffffffffffffffffffffffffffffffffffffffff168273ffffffffffffffffffffffffffffffffffffffff167f8c5be1e5ebec7d5bd14f71427d1e84f3dd0314c0f7b2291e5b200ac8c7c3b92560405160405180910390a450505050565b5f6001905090565b5f7fffffffffffffffffffffffffffffffffffffffffffffffffffffffffffffffff905090565b5f8161156461152b565b116116535760045f8381526020019081526020015f20549050611585611533565b8211156115aa5761159581611bae565b611664576115a963df2d9b4260e01b6113f9565b5b5f810361162b575f5482106115ca576115c963df2d9b4260e01b6113f9565b5b5b60045f836001900393508381526020019081526020015f205490505f810315611626575f7c0100000000000000000000000000000000000000000000000000000000821603156116645761162563df2d9b4260e01b6113f9565b5b6115cb565b5f7c010000000000000000000000000000000000000000000000000000000082160315611664575b61166363df2d9b4260e01b6113f9565b5b919050565b5f5f5f60065f8581526020019081526020015f2090508092508254915050915091565b5f33905090565b5f73ffffffffffffffffffffffffffffffffffffffff8316925073ffffffffffffffffffffffffffffffffffffffff821691508382148383141790509392505050565b5f73ffffffffffffffffffffffffffffffffffffffff168473ffffffffffffffffffffffffffffffffffffffff161415801561173e57505f73ffffffffffffffffffffffffffffffffffffffff168373ffffffffffffffffffffffffffffffffffffffff1614155b156117c8575f5f90505b818110156117c657600a5f828561175f9190612ed7565b81526020019081526020015f205f9054906101000a900460ff16156117b9576040517f08c379a00000000000000000000000000000000000000000000000000000000081526004016117b090612f7a565b60405180910390fd5b8080600101915050611748565b505b6117d484848484611bee565b50505050565b5f5f60e883901c905060e86117f0868684611bf4565b62ffffff16901b9150509392505050565b5f73ffffffffffffffffffffffffffffffffffffffff83169250814260a01b178317905092915050565b50505050565b611839611bfc565b73ffffffffffffffffffffffffffffffffffffffff16611857610c70565b73ffffffffffffffffffffffffffffffffffffffff16146118b65761187a611bfc565b6040517f118cdaa70000000000000000000000000000000000000000000000000000000081526004016118ad9190612208565b60405180910390fd5b565b5f60095f9054906101000a900473ffffffffffffffffffffffffffffffffffffffff1690508160095f6101000a81548173ffffffffffffffffffffffffffffffffffffffff021916908373ffffffffffffffffffffffffffffffffffffffff1602179055508173ffffffffffffffffffffffffffffffffffffffff168173ffffffffffffffffffffffffffffffffffffffff167f8be0079c531659141344cd1fd0a4f28419497f9722a3daafe3b4186f6b6457e060405160405180910390a35050565b611985815f611c03565b50565b6119a1828260405180602001604052805f815250611e1e565b5050565b5f8373ffffffffffffffffffffffffffffffffffffffff1663150b7a026119ca61168c565b8786866040518563ffffffff1660e01b81526004016119ec9493929190612fea565b6020604051808303815f875af1925050508015611a2757506040513d601f19601f82011682018060405250810190611a249190613048565b60015b611a7c573d805f8114611a55576040519150601f19603f3d011682016040523d82523d5f602084013e611a5a565b606091505b505f815103611a7457611a7363d1a57ed660e01b6113f9565b5b805181602001fd5b63150b7a0260e01b7bffffffffffffffffffffffffffffffffffffffffffffffffffffffff1916817bffffffffffffffffffffffffffffffffffffffffffffffffffffffff191614915050949350505050565b6060600b8054611ade9061289d565b80601f0160208091040260200160405190810160405280929190818152602001828054611b0a9061289d565b8015611b555780601f10611b2c57610100808354040283529160200191611b55565b820191905f5260205f20905b815481529060010190602001808311611b3857829003601f168201915b5050505050905090565b606060a060405101806040526020810391505f825281835b600115611b9957600184039350600a81066030018453600a8104905080611b77575b50828103602084039350808452505050919050565b5f7c0100000000000000000000000000000000000000000000000000000000821673ffffffffffffffffffffffffffffffffffffffff8316119050919050565b50505050565b5f9392505050565b5f33905090565b5f611c0d8361155a565b90505f8190505f5f611c1e86611669565b915091508415611c6657611c3a8184611c3561168c565b611693565b611c6557611c4f83611c4a61168c565b611244565b611c6457611c636359c896be60e01b6113f9565b5b5b5b611c73835f8860016116d6565b8015611c7d575f82555b600160806001901b0360055f8573ffffffffffffffffffffffffffffffffffffffff1673ffffffffffffffffffffffffffffffffffffffff1681526020019081526020015f205f8282540192505081905550611d2183611cde855f886117da565b7c02000000000000000000000000000000000000000000000000000000007c01000000000000000000000000000000000000000000000000000000001717611801565b60045f8881526020019081526020015f20819055505f7c0200000000000000000000000000000000000000000000000000000000851603611d9d575f6001870190505f60045f8381526020019081526020015f205403611d9b575f548114611d9a578460045f8381526020019081526020015f20819055505b5b505b855f73ffffffffffffffffffffffffffffffffffffffff168473ffffffffffffffffffffffffffffffffffffffff167fddf252ad1be2c89b69c2b068fc378daa952ba7f163c4a11628f55a4df523b3ef60405160405180910390a4611e05835f88600161182b565b60015f8154809291906001019190505550505050505050565b611e288383611e94565b5f8373ffffffffffffffffffffffffffffffffffffffff163b14611e8f575f5f5490505f83820390505b611e645f8683806001019450866119a5565b611e7957611e7863d1a57ed660e01b6113f9565b5b818110611e5257815f5414611e8c575f5ffd5b50505b505050565b5f5f5490505f8203611eb157611eb063b562e8dd60e01b6113f9565b5b611ebd5f8483856116d6565b611edb83611ecc5f865f6117da565b611ed585612008565b17611801565b60045f8381526020019081526020015f2081905550600160406001901b17820260055f8573ffffffffffffffffffffffffffffffffffffffff1673ffffffffffffffffffffffffffffffffffffffff1681526020019081526020015f205f82825401925050819055505f73ffffffffffffffffffffffffffffffffffffffff8473ffffffffffffffffffffffffffffffffffffffff161690505f8103611f8c57611f8b632e07630060e01b6113f9565b5b5f83830190505f839050611f9e611533565b600183031115611fb957611fb86381647e3a60e01b6113f9565b5b5b80835f7fddf252ad1be2c89b69c2b068fc378daa952ba7f163c4a11628f55a4df523b3ef5f5fa4818160010191508103611fba57815f819055505050506120035f84838561182b565b505050565b5f6001821460e11b9050919050565b5f604051905090565b5f5ffd5b5f5ffd5b5f7fffffffff0000000000000000000000000000000000000000000000000000000082169050919050565b61205c81612028565b8114612066575f5ffd5b50565b5f8135905061207781612053565b92915050565b5f6020828403121561209257612091612020565b5b5f61209f84828501612069565b91505092915050565b5f8115159050919050565b6120bc816120a8565b82525050565b5f6020820190506120d55f8301846120b3565b92915050565b5f81519050919050565b5f82825260208201905092915050565b8281835e5f83830152505050565b5f601f19601f8301169050919050565b5f61211d826120db565b61212781856120e5565b93506121378185602086016120f5565b61214081612103565b840191505092915050565b5f6020820190508181035f8301526121638184612113565b905092915050565b5f819050919050565b61217d8161216b565b8114612187575f5ffd5b50565b5f8135905061219881612174565b92915050565b5f602082840312156121b3576121b2612020565b5b5f6121c08482850161218a565b91505092915050565b5f73ffffffffffffffffffffffffffffffffffffffff82169050919050565b5f6121f2826121c9565b9050919050565b612202816121e8565b82525050565b5f60208201905061221b5f8301846121f9565b92915050565b61222a816121e8565b8114612234575f5ffd5b50565b5f8135905061224581612221565b92915050565b5f5f6040838503121561226157612260612020565b5b5f61226e85828601612237565b925050602061227f8582860161218a565b9150509250929050565b6122928161216b565b82525050565b5f6020820190506122ab5f830184612289565b92915050565b5f5ffd5b5f5ffd5b5f5ffd5b5f5f83601f8401126122d2576122d16122b1565b5b8235905067ffffffffffffffff8111156122ef576122ee6122b5565b5b60208301915083602082028301111561230b5761230a6122b9565b5b9250929050565b5f5f6020838503121561232857612327612020565b5b5f83013567ffffffffffffffff81111561234557612344612024565b5b612351858286016122bd565b92509250509250929050565b5f81519050919050565b5f82825260208201905092915050565b5f819050602082019050919050565b61238f816120a8565b82525050565b5f6123a08383612386565b60208301905092915050565b5f602082019050919050565b5f6123c28261235d565b6123cc8185612367565b93506123d783612377565b805f5b838110156124075781516123ee8882612395565b97506123f9836123ac565b9250506001810190506123da565b5085935050505092915050565b5f6020820190508181035f83015261242c81846123b8565b905092915050565b5f5f5f6060848603121561244b5761244a612020565b5b5f61245886828701612237565b935050602061246986828701612237565b925050604061247a8682870161218a565b9150509250925092565b5f5f83601f840112612499576124986122b1565b5b8235905067ffffffffffffffff8111156124b6576124b56122b5565b5b6020830191508360018202830111156124d2576124d16122b9565b5b9250929050565b5f5f602083850312156124ef576124ee612020565b5b5f83013567ffffffffffffffff81111561250c5761250b612024565b5b61251885828601612484565b92509250509250929050565b5f6020828403121561253957612538612020565b5b5f61254684828501612237565b91505092915050565b612558816120a8565b8114612562575f5ffd5b50565b5f813590506125738161254f565b92915050565b5f5f6040838503121561258f5761258e612020565b5b5f61259c85828601612237565b92505060206125ad85828601612565565b9150509250929050565b5f5f83601f8401126125cc576125cb6122b1565b5b8235905067ffffffffffffffff8111156125e9576125e86122b5565b5b602083019150836020820283011115612605576126046122b9565b5b9250929050565b5f5f5f5f6040858703121561262457612623612020565b5b5f85013567ffffffffffffffff81111561264157612640612024565b5b61264d878288016125b7565b9450945050602085013567ffffffffffffffff8111156126705761266f612024565b5b61267c878288016122bd565b925092505092959194509250565b5f5ffd5b7f4e487b71000000000000000000000000000000000000000000000000000000005f52604160045260245ffd5b6126c482612103565b810181811067ffffffffffffffff821117156126e3576126e261268e565b5b80604052505050565b5f6126f5612017565b905061270182826126bb565b919050565b5f67ffffffffffffffff8211156127205761271f61268e565b5b61272982612103565b9050602081019050919050565b828183375f83830152505050565b5f61275661275184612706565b6126ec565b9050828152602081018484840111156127725761277161268a565b5b61277d848285612736565b509392505050565b5f82601f830112612799576127986122b1565b5b81356127a9848260208601612744565b91505092915050565b5f5f5f5f608085870312156127ca576127c9612020565b5b5f6127d787828801612237565b94505060206127e887828801612237565b93505060406127f98782880161218a565b925050606085013567ffffffffffffffff81111561281a57612819612024565b5b61282687828801612785565b91505092959194509250565b5f5f6040838503121561284857612847612020565b5b5f61285585828601612237565b925050602061286685828601612237565b9150509250929050565b7f4e487b71000000000000000000000000000000000000000000000000000000005f52602260045260245ffd5b5f60028204905060018216806128b457607f821691505b6020821081036128c7576128c6612870565b5b50919050565b7f4e487b71000000000000000000000000000000000000000000000000000000005f52603260045260245ffd5b5f82905092915050565b5f819050815f5260205f209050919050565b5f6020601f8301049050919050565b5f82821b905092915050565b5f600883026129607fffffffffffffffffffffffffffffffffffffffffffffffffffffffffffffffff82612925565b61296a8683612925565b95508019841693508086168417925050509392505050565b5f819050919050565b5f6129a56129a061299b8461216b565b612982565b61216b565b9050919050565b5f819050919050565b6129be8361298b565b6129d26129ca826129ac565b848454612931565b825550505050565b5f5f905090565b6129e96129da565b6129f48184846129b5565b505050565b5b81811015612a1757612a0c5f826129e1565b6001810190506129fa565b5050565b601f821115612a5c57612a2d81612904565b612a3684612916565b81016020851015612a45578190505b612a59612a5185612916565b8301826129f9565b50505b505050565b5f82821c905092915050565b5f612a7c5f1984600802612a61565b1980831691505092915050565b5f612a948383612a6d565b9150826002028217905092915050565b612aae83836128fa565b67ffffffffffffffff811115612ac757612ac661268e565b5b612ad1825461289d565b612adc828285612a1b565b5f601f831160018114612b09575f8415612af7578287013590505b612b018582612a89565b865550612b68565b601f198416612b1786612904565b5f5b82811015612b3e57848901358255600182019150602085019450602081019050612b19565b86831015612b5b5784890135612b57601f891682612a6d565b8355505b6001600288020188555050505b50505050505050565b5f82825260208201905092915050565b5f5ffd5b82818337505050565b5f612b998385612b71565b93507f07ffffffffffffffffffffffffffffffffffffffffffffffffffffffffffffff831115612bcc57612bcb612b81565b5b602083029250612bdd838584612b85565b82840190509392505050565b5f6040820190508181035f830152612c02818587612b8e565b9050612c116020830184612289565b949350505050565b7f44617461206d69736d61746368000000000000000000000000000000000000005f82015250565b5f612c4d600d836120e5565b9150612c5882612c19565b602082019050919050565b5f6020820190508181035f830152612c7a81612c41565b9050919050565b5f81905092915050565b5f612c95826120db565b612c9f8185612c81565b9350612caf8185602086016120f5565b80840191505092915050565b5f612cc68285612c8b565b9150612cd28284612c8b565b91508190509392505050565b7f5469636b657420646f6573206e6f7420657869737400000000000000000000005f82015250565b5f612d126015836120e5565b9150612d1d82612cde565b602082019050919050565b5f6020820190508181035f830152612d3f81612d06565b9050919050565b7f5469636b657420616c72656164792075736564000000000000000000000000005f82015250565b5f612d7a6013836120e5565b9150612d8582612d46565b602082019050919050565b5f6020820190508181035f830152612da781612d6e565b9050919050565b5f81519050919050565b5f819050602082019050919050565b612dd08161216b565b82525050565b5f612de18383612dc7565b60208301905092915050565b5f602082019050919050565b5f612e0382612dae565b612e0d8185612b71565b9350612e1883612db8565b805f5b83811015612e48578151612e2f8882612dd6565b9750612e3a83612ded565b925050600181019050612e1b565b5085935050505092915050565b5f6040820190508181035f830152612e6d8185612df9565b9050612e7c6020830184612289565b9392505050565b7f4e487b71000000000000000000000000000000000000000000000000000000005f52601160045260245ffd5b5f612eba8261216b565b91505f8203612ecc57612ecb612e83565b5b600182039050919050565b5f612ee18261216b565b9150612eec8361216b565b9250828201905080821115612f0457612f03612e83565b5b92915050565b7f55736564207469636b65742063616e6e6f74206265207472616e7366657272655f8201527f6400000000000000000000000000000000000000000000000000000000000000602082015250565b5f612f646021836120e5565b9150612f6f82612f0a565b604082019050919050565b5f6020820190508181035f830152612f9181612f58565b9050919050565b5f81519050919050565b5f82825260208201905092915050565b5f612fbc82612f98565b612fc68185612fa2565b9350612fd68185602086016120f5565b612fdf81612103565b840191505092915050565b5f608082019050612ffd5f8301876121f9565b61300a60208301866121f9565b6130176040830185612289565b81810360608301526130298184612fb2565b905095945050505050565b5f8151905061304281612053565b92915050565b5f6020828403121561305d5761305c612020565b5b5f61306a84828501613034565b9150509291505056fea26469706673582212207c0f3fc88fd8a7774063431506e45f1dc3512223d89e0b0c1ade922c56e6eea164736f6c634300081c0033",
  "linkReferences": {},
  "deployedLinkReferences": {},
  "immutableReferences": {},
  "inputSourceName": "project/contracts/ShineTicket.sol",
  "buildInfoId": "solc-0_8_28-1257b7f29a9fdb9092a59eb224174f8e58989a29"
}